:020000040800F2
:100000000020002065110008250C0008270C0008BE
:1000100000000000000000000000000000000000E0
:10002000000000000000000000000000290C000893
:1000300000000000000000002B0C00082D0C000840
:10004000B5110008B5110008B5110008B511000878
:10005000B5110008B5110008B5110008B511000868
:10006000B5110008B5110008B5110008B511000858
:10007000B5110008B5110008B5110008B511000848
:10008000B5110008B511000800000000B511000806
:10009000B51100085D070008B5110008B51100088A
:1000A000B5110008B5110008B5110008B511000818
:1000B000B511000800000000B511000800000000A4
:1000C00010B5064C2378002B07D1054B002B02D02E
:1000D000044800E000BF0123237010BD840000200D
:1000E0000000000048260008044B10B5002B03D088
:1000F0000349044800E000BF10BDC04600000000F6
:10010000880000204826000803B4714649084000D2
:100110004900095E49008E4403BC70470022430831
:100120008B4274D303098B425FD3030A8B4244D3BF
:10013000030B8B4228D3030C8B420DD3FF22090201
:1001400012BA030C8B4202D31212090265D0030BC0
:100150008B4219D300E0090AC30B8B4201D3CB03B6
:10016000C01A5241830B8B4201D38B03C01A5241F8
:10017000430B8B4201D34B03C01A5241030B8B42FA
:1001800001D30B03C01A5241C30A8B4201D3CB02E5
:10019000C01A5241830A8B4201D38B02C01A5241CA
:1001A000430A8B4201D34B02C01A5241030A8B42CD
:1001B00001D30B02C01A5241CDD2C3098B4201D3E5
:1001C000CB01C01A524183098B4201D38B01C01A63
:1001D000524143098B4201D34B01C01A52410309DA
:1001E0008B4201D30B01C01A5241C3088B4201D389
:1001F000CB00C01A524183088B4201D38B00C01A36
:10020000524143088B4201D34B00C01A5241411A5C
:1002100000D20146524110467047FFE701B5002069
:1002200000F006F802BDC0460029F7D076E7704717
:100230007047C046F0B5CE469946030C9C46130461
:1002400047461B0C1D000E0061460404240C80B5BB
:100250000700100C4B436543414360432C0CC0180E
:1002600024188C46A34203D980235B029846C444D9
:10027000494679435643230C2D042D0C89196344B8
:1002800024046019C918C0BCB946B046F0BDC046C8
:10029000F0B5DE4657464E464546E0B58BB01822CF
:1002A000002104A801F00CF9594B5A698021C903B7
:1002B0000A435A615A690A400392039A5A69802193
:1002C00089020A435A615A690A400292029A5A699B
:1002D0008021C9020A435A615B690B400193019B6B
:1002E0004C4D0126AE6202239A46AB620233994618
:1002F000AB6204339846AB6208339B46AB62103363
:10030000AB624022AA628021A962049608969027D7
:10031000FF0504A80100380000F08DFC5046049051
:1003200000240594089604A80100380000F083FC1E
:10033000484604900594089604A80100380000F08F
:100340007AFC404604900594089604A80100380001
:1003500000F071FC0496059606940794089404A88E
:100360000100280000F067FC5046049005960694B2
:100370000794089404A80100280000F05CFC48469B
:100380000490059606940794089404A80100280098
:1003900000F051FC4046049005960694079408949A
:1003A00004A80100280000F046FC58460490059679
:1003B00006940794089404A80100280000F03BFC70
:1003C00020230493059606940794089404AB19001F
:1003D000280000F030FC4022049205960694079411
:1003E000089404AB1900280000F025FC802104913A
:1003F000059606940794089404A9280000F01BFCB5
:100400000BB0F0BCBB46B246A946A046F0BDC04604
:10041000001002400004004882B043001818002376
:10042000019304E0C046C046019B01330193019B48
:100430008342F7D302B0704770B51420FFF7ECFF8A
:100440000A4CA36980252D022B43A3611420FFF7DA
:10045000E3FFA26980231B061343A3611420FFF767
:10046000DBFFA3691D43A56170BDC04600080048BD
:1004700010B50400454A91698023DB010B43936169
:1004800043B2002B46DB9022D205916980231B06E4
:100490000B439361630645D59022D2059169802371
:1004A0005B010B439361A30644D5394A91698023CC
:1004B0009B000B439361E30643D5354A9169802342
:1004C0005B000B439361FFF7B7FF230740D59022F2
:1004D000D205916980231B020B43936163073FD5CB
:1004E0009022D205916980235B010B439361A3079E
:1004F0003ED5274A916980239B000B439361E40713
:100500003DD5234A916980235B000B439361FFF73C
:1005100093FF10BD9022D205916980231B020B43EB
:100520009361B7E79022D205916980235B050B4365
:100530009361B8E7164A916980239B040B4393614A
:10054000B9E7134A916980235B040B439361BAE7CF
:100550009022D205916980231B060B439361BDE76E
:100560009022D205916980235B050B439361BEE71E
:10057000074A916980239B040B439361BFE7044AB8
:10058000916980235B040B439361C0E70008004836
:100590000004004870B50500002403E0FFF768FF81
:1005A0000134E4B2285D0028F8D170BD10B5040014
:1005B000474A91698023DB050B43936143B2002BCB
:1005C00049DB9022D205916980231B060B4393617E
:1005D000630648D59022D205916980235B010B43C5
:1005E0009361A30647D53B4A916980239B000B4347
:1005F0009361E30646D5374A916980235B000B433C
:100600009361FFF719FF230743D59022D205916923
:1006100080231B020B439361630742D59022D205CE
:10062000916980235B010B439361A30741D5294A5C
:10063000916980239B000B439361E40740D5254AD1
:10064000916980235B000B439361FFF7F5FE22481D
:10065000FFF7E2FE10BD9022D205916980231B02B4
:100660000B439361B4E79022D205916980235B0527
:100670000B439361B5E7174A916980239B040B43B1
:100680009361B6E7134A916980235B040B4393613E
:10069000B7E79022D205916980231B060B43936133
:1006A000BAE79022D205916980235B050B439361E1
:1006B000BBE7084A916980239B040B439361BCE725
:1006C000044A916980235B040B439361BDE7C046F4
:1006D0000008004800040048B80B000010B51B4B90
:1006E0005969802292020A435A6159698022D202D2
:1006F0000A435A615969802212030A435A619022BF
:10070000D20511688223DB050B431360104A116880
:10071000A023DB020B4313600E4A1168A023DB0504
:100720000B4313600C48FFF777FE3320FFF73EFFC3
:100730003220FFF73BFF0C20FFF738FF2820FFF7A0
:1007400035FF0120FFF732FF10BDC0460010024008
:1007500000040048000800483075000030B585B03E
:100760008E4B1B78DAB2022B2DD0032A54D0012AEB
:1007700000D00AE18A490B888A4A1068013BC362AB
:100780000B88013BD360884B1B78884AD156884A36
:100790005161884A1278002A0AD00133DBB2824ABA
:1007A0001370082B00D0F3E0824B00221A70EFE0A8
:1007B000013BDBB27C4A1370002B00D0E8E07D4B9C
:1007C00001221A70E4E076490B88764A1068013BF2
:1007D000C3620B88013BD360774B1B78774AD156B5
:1007E000734A5161764A1278002A0AD00133DBB28B
:1007F000714A1370082B00D0CAE0714B00221A70A6
:10080000C6E0013BDBB26C4A1370002B00D0BFE0A6
:100810006B4B01221A70BBE06A4B1B78012B0DD089
:10082000684B1B78DBB2012B37D9664B1B78DBB2E8
:100830000A2B32D8644BFE221A7010E0634B1B78EF
:10084000DBB25B4A5361574B1968614A1278CA623E
:10085000DA60E5E75B4A13780133DBB213705B4B78
:100860001B78DBB2574A1278023A1341DB0704D4F3
:10087000544B1B78DBB2092BECD9544B1B78514AF3
:1008800011780239FE228A401340494A5361454B90
:1008900019684F4A1278CA62DA604A4B1B78002BFB
:1008A00012D0484A13780133DBB213701378DBB2ED
:1008B000092B6DD9130000221A703A4B1968913236
:1008C000FF32CA62DA6063E000F076FCC0B23F4BF0
:1008D000187000F071FC80B26521FFF7A5FCC9B269
:1008E0003B4B1970002907D1384B1878C0B2384CEF
:1008F0006531FFF799FC217000F05EFC80B235494C
:10090000FFF792FC89B2344B1980632903D8314B2D
:100910005B1A314A13802C4BFE221A70244B0022A2
:100920005A6108320021684600F0CAFD0822002101
:1009300002A800F0C5FD284D2B88284C2200082174
:10094000684600F03BFD224B1B782200082102A8DC
:1009500000F034FD0120FFF729FEC020FFF726FE3E
:100960006846FFF717FE1E48FFF714FE02A8FFF7C0
:1009700011FE8020FFF71AFE1A48FFF70BFE094B05
:1009800019682A88CA62DA608BE7094B00225A612B
:10099000044800F08EFA05B030BDC046AC0000201F
:1009A000AA000020B4000020A100002010000020B8
:1009B0000004004801000020A000002004000020E6
:1009C00000000020A7000020A2000020A8000020B6
:1009D000A6000020DC050000A4000020602600081E
:1009E000682600086C26000872B6FEE710B50C48B1
:1009F0000C4B03600C4B4360002383600B4AC260C6
:100A0000036143618033836100F04AFB002804D115
:100A1000074B802292031A6010BDFFF7E5FFC04626
:100A2000B4000020004401403F1F0000E703000025
:100A300000E100E010B51A4A136801218B431360EE
:100A4000174B1B68DB07FBD4164A136801210B43C5
:100A50001360144B1B689B07FBD5124B1A68F821D7
:100A60008A4378390A431A605A6870318A435A6057
:100A70005A680D490A405A605A6803218A435A60ED
:100A8000084B5B680C221A42FAD1084800F064FB5C
:100A9000032000F02DF9002800D110BDFFF7A4FFBE
:100AA0000020024000100240FFF8FFFF00127A0011
:100AB00010B500F045F9FFF7BDFFFFF7E9FBFFF7C1
:100AC00095FF4B4800F0BAF9FFF708FE0120FFF749
:100AD0006DFD4848FFF75EFD4BE000F04DF9464BD9
:100AE0001B68C01A454B1B78984249D90120FFF773
:100AF0005DFD00F041F9404B1860414B1B889BB2F3
:100B0000FA22520093420DD03D4BFA2252001A8035
:100B10003C48FFF73FFD364B1968F422FF32CA62AA
:100B2000DA602DE0364BF532FF321A803648FFF797
:100B300031FD2F4B1968354ACA62DA6020E000F0B7
:100B40001BF92D4B1B68C01A2C4B1B7898421ED9E1
:100B50000120FFF72BFD2E48FFF71CFD2D4B012236
:100B60001A7014E090200821C00500F05FF90028F9
:100B700027D090200121C00500F058F90028ACD002
:100B800090200221C00500F051F90028D7D0902014
:100B90000421C00500F04AF90028E3D100F0ECF888
:100BA000154B1B68C01A154B1B789842DAD90120E7
:100BB000FFF7FCFC1848FFF7EDFC164B02221A70F9
:100BC000D0E700F0D9F80C4B1B68C01A0B4B1B7810
:100BD0009842CED90120FFF7E9FC1048FFF7DAFC74
:100BE0000C4B03221A700E4B00221A70C1E7C0464C
:100BF000B400002074260008B00000201A00002075
:100C0000AA0000208C26000880260008E7030000C8
:100C100098260008AC000020A02600086C260008DA
:100C2000A7000020FEE7FEE77047704710B500F010
:100C300097F810BD7047F0B5002216E00B699C468E
:100C4000C4682B006B435E00F618F743B443664656
:100C50005E433443C4604C68022C26D04D6804685F
:100C60003C406B432343036001320C682300D340B4
:100C70003BD00123934025001D401C42F4D04B681B
:100C8000013B012BDAD88F6883682C006C43660027
:100C90003619B3437C43234383600E68CC684368B2
:100CA000B343744323434360C8E7FF2D0DD84C6919
:100CB000A446066A1C006C436C4325012D1BAE4301
:100CC00065466C4334430462C8E74C69A446466AEF
:100CD0002D0A2C006C436C436C4325012D1BAE4345
:100CE00065466C4334434462B8E70020F0BD000021
:100CF00010B504000F4B1978FA208000FFF70EFAA8
:100D000001000D4B1868FFF709FA00F08BF8002876
:100D10000DD1032C01D901200AE00130002221006D
:100D2000404200F07BF8054B1C60002000E00120F1
:100D300010BDC046200000201C0000202400002020
:100D400010B5064A136810210B4313600320FFF708
:100D5000CFFF00F0D3F9002010BDC04600200240B4
:100D6000034A1168034B1B785B1813607047C04639
:100D7000FC00002020000020014B18687047C0468E
:100D8000FC00002070B5002811DB8308134DC03330
:100D90009B005C5903221040C000FC3216008640C4
:100DA000B44389010A40824022435A5170BD0F2347
:100DB0000340083B9B0806339B00094A9446634462
:100DC0005C6803221040C000FC3215008540AC4333
:100DD00089010A40824022435A60E7E700E100E0CF
:100DE00000ED00E0013880235B0498420FD2094AED
:100DF00050600948036A1B021B0AC02109060B4305
:100E000003620023936007331360002070470120C2
:100E1000FCE7C04610E000E000ED00E010B5FFF791
:100E2000B1FF10BD10B5FFF7DDFF10BD03690B4228
:100E300001D0012070470020FCE700003D23C35C87
:100E4000012B26D13C330222C2540268D36801210F
:100E50000B43D3600368114A93420FD08022D2051E
:100E600093420BD00E4A934208D00E4A934205D0CB
:100E70001A6801210A431A6000200BE099680722D2
:100E80000A40062A07D01A6801210A431A60002086
:100E900000E0012070470020FCE7C046002C014024
:100EA00000040040004001407047704770477047A1
:100EB000704770B504000368DE681D69AA070ED587
:100EC000B2070CD5032252421A610123037703684B
:100ED0009B699B0751D0FFF7E9FF002323776B073E
:100EE00012D5730710D52368052252421A610223D6
:100EF000237723689A69C0239B001A4243D02000BD
:100F0000FFF7D4FF002323772B0710D533070ED527
:100F10002368092252421A61042323772368DB697C
:100F20009B0737D02000FFF7C1FF00232377EB0694
:100F300012D5F30610D52368112252421A610823F4
:100F400023772368DA69C0239B001A4229D0200046
:100F5000FFF7ACFF00232377EB0701D5F30727D476
:100F60002B0601D533062BD46B0601D573062FD47F
:100F7000AD0601D5B60633D470BDFFF796FF20004D
:100F8000FFF795FFA9E72000FFF78FFF2000FFF78D
:100F90008EFFB7E72000FFF788FF2000FFF787FFED
:100FA000C3E72000FFF781FF2000FFF780FFD1E7B4
:100FB0002368022252421A612000FFF775FFCFE733
:100FC0002368812252421A61200000F096F8CBE794
:100FD0002368412252421A612000FFF769FFC7E7E8
:100FE0002368212252421A61200000F085F8C3E7ED
:100FF0000368244A904206D08022D205904202D053
:10100000214A904203D1702293434A6813431D4AF8
:10101000904212D08022D20590420ED01A4A9042BD
:101020000BD01A4A904208D0194A904205D0194A6A
:10103000904202D0184A904203D1184A1A40CB6815
:101040001343802293434A69134303608B68C3624E
:101050000B6883620B4B984208D00D4B984205D029
:101060000C4B984202D00C4B984201D10B690363A0
:10107000012343610269134203D0036901229343B0
:1010800003617047002C0140000400400020004034
:10109000004001400044014000480140FFFCFFFFC8
:1010A00070B5041E26D03D23C35C002B1CD03D250B
:1010B00002236355210001C9FFF79AFF012346224D
:1010C000A354083AA3540132A3540132A354013269
:1010D000A3540132A3540132A3540132A354013268
:1010E000A3546355002070BD3C330022C25400F06D
:1010F0001DF8DCE70120F6E77047704782B00A4B25
:10110000996901221143996199690A400092009AF4
:10111000DA69802149050A43DA61DB690B400193F2
:10112000019B02B07047C0460010024082B00268C6
:10113000074B9A4201D002B07047064B9A69802152
:1011400089020A439A619B690B400193019BF2E774
:101150000044014000100240014B18607047C04637
:101160001C0000200D488546FFF764FD0C480D4922
:101170000D4A002302E0D458C4500433C4188C42F2
:10118000F9D30A4A0A4C002301E013600432A24258
:10119000FBD300F0EBF9FFF78BFCFEE7002000200B
:1011A0000000002084000020902700088400002018
:1011B00050020020FEE70000164B10B51C68236BA0
:1011C000002B16D1182000F061FA021E206304D112
:1011D0005221114B114800F0F1F9114B002103602D
:1011E000104B4360104B83600B23838101201061FF
:1011F0005161246B0D4A206961690D4BFFF71AF8A4
:101200000122002380185941206161614800400893
:1012100010BDC04634000020A8260008BF260008E4
:101220000E33CDAB34126DE6ECDE05002D7F954C10
:101230002DF45158002310B504000360436083600F
:1012400081814366C2810361436183611900082281
:101250005C3000F035F90B4B246263620A4BA362E9
:101260000A4BE3620A4B23630A4B9C4205D00A4BAC
:101270009C4202D0094B9C4203D12000583000F020
:1012800099F910BD291400085114000889140008A8
:10129000B51400080001002068010020D0010020E2
:1012A00010B5034A0349044800F06CF810BDC0466D
:1012B00028000020C51E00083800002041680B4BA4
:1012C00010B50400994201D000F0FCFDA168084B64
:1012D000994202D0200000F0F5FDE168054B9942EB
:1012E00002D0200000F0EEFD10BDC046000100203D
:1012F00068010020D001002010B5094B094A0421E3
:101300001A6009480022FFF795FF012209210748CA
:10131000FFF790FF022212210548FFF78BFF10BD57
:1013200038020020A11200080001002068010020FE
:10133000D001002010B5024800F03DF910BDC046B4
:101340004102002010B5024800F036F910BDC04639
:101350004102002010B50400FFF7ECFF236A002BC8
:1013600002D0FFF7EFFF10BD044B2362044B1B6854
:10137000002BF6D1FFF7C0FFF3E7C046BD1200080F
:1013800038020020F7B51400002600900191A568EE
:101390006768013F04D52468002CF8D13000FEBDF9
:1013A000AB89012B08D90E22AB5E013304D0290092
:1013B0000098019B984706436835EAE70CB430B5BE
:1013C000184B0C001D689DB0002908DA8B23012002
:1013D0002B6040421DB030BC08BC02B018478223CD
:1013E0006A469B009382002302901B9306909942C9
:1013F00000D04B1E0493079301236A465B42D382BD
:10140000280021AB209A02A9019300F05BFA431C4B
:1014100001DA8B232B60002CDCD00022029B1A7097
:10142000D8E7C0463400002070B50C000E25495F97
:1014300000F074F8002803DB636D1B18636570BD52
:10144000A389024A1340A381F9E7C046FFEFFFFFDB
:10145000F8B51F008B8905000C001600DB0505D5CB
:101460000E23C95E0022022300F044F8A389054A36
:1014700028001340A38132000E23E15E3B0000F000
:1014800061F8F8BDFFEFFFFF70B50C000E25495F56
:1014900000F030F8A389421C03D1054A1340A38110
:1014A00070BD802252011343A3816065F8E7C046F6
:1014B000FFEFFFFF10B50E23C95E00F009F810BD65
:1014C00003008218934200D1704719700133F9E785
:1014D000002370B5064D040008002B6001F062F88F
:1014E000431C03D12B68002B00D0236070BDC04685
:1014F0003C02002070B50400080011001A0000230F
:10150000054D2B6001F076F8431C03D12B68002BAE
:1015100000D0236070BDC0463C02002070B50400BE
:10152000080011001A000023054D2B6001F06AF835
:10153000431C03D12B68002B00D0236070BDC04634
:101540003C02002070B50400080011001A000023BE
:10155000054D2B6001F06EF8431C03D12B68002B66
:1015600000D0236070BDC0463C02002070B500264C
:101570000C4C0D4D641BA410A64209D1002601F0AD
:1015800063F80A4C0A4D641BA410A64205D170BD35
:10159000B300EB5898470136EEE7B300EB58984795
:1015A0000136F2E788270008882700088C27000802
:1015B0008827000870477047704700007FB5140007
:1015C0001A00094B05001B680E00D868074B002C59
:1015D00001D1074B1C000749019302942B00009690
:1015E00000F09CFC00F0E2FC34000020172700080B
:1015F000522700082427000870B505000C1E10D0E3
:10160000043C2368002B00DAE418280000F0EAF814
:101610001D4A1368002B05D163601460280000F098
:10162000E9F870BDA34208D9206821188B42F3D194
:1016300019685B6809182160EEE71A005B68002BE7
:1016400001D0A342F9D911685018A0420BD12068EB
:101650000918501811608342E0D118685B6841187E
:1016600011605360DAE7A04202D90C232B60D5E762
:10167000206821188B4203D119685B680918216022
:1016800063605460CAE7C0464802002010B5034BAF
:101690000100186800F026F810BDC0463400002094
:1016A00070B50F4E0D0031680400002902D100F022
:1016B00057FC30602900200000F052FC431C03D18D
:1016C00001256D42280070BD0323C51C9D43A8421F
:1016D000F8D0291A200000F043FC0130F2D1EFE7E6
:1016E00044020020F7B50322CB1C934308330500C6
:1016F0001F000C2B34D20C27B94233D8280000F03D
:1017000071F8374E33681C00002C2FD139002800A7
:10171000FFF7C6FF0400431C5FD134680094009BB0
:10172000002B4AD1002C52D023682800E3180099DE
:10173000019300F015FC019B834248D123682800E7
:10174000FF1A3900FFF7ACFF013040D02368DB19E6
:10175000236033685A68002A33D1009B336019E054
:10176000002BC9DA0C232B600020FEBD2168C91BA9
:1017700020D40B290AD9E2192760A34204D1326090
:1017800063681160536005E05A60F9E76268A3423C
:101790000ED13260280000F02DF8200007220B3017
:1017A000231D9043C21A9842DFD01B1AA350DCE7D6
:1017B0005A60EFE723006468A6E7009C6368009323
:1017C000ADE71A005B68A342FBD10023DAE70C23E4
:1017D00028002B6000F00EF8C6E70760DAE7C04685
:1017E0004802002010B50248FFF7E5FE10BDC046D4
:1017F0004002002010B50248FFF7DEFE10BDC046D3
:1018000040020020F0B58E6885B01F000C000B6808
:1018100002900392BE4230D80C21625E9021C90032
:101820000A4228D0032021695B1A0193636943436C
:101830000198DD0FED187B1C1B186D10AB4200D911
:101840001D00520528D529000298FFF74BFF061E00
:101850002CD0019A216900F0A0FBA289184B1A40F4
:1018600080231343A381019B2661F61826603E0066
:101870006561ED1AA560BE4200D93E0032000399B1
:10188000206800F05BFB0020A3689B1BA36023681B
:101890009B19236005B0F0BD2A00029800F08DFB73
:1018A000061EE0D121690298FFF7A6FE0C23012055
:1018B000029A40421360A28934331343A381E9E7BB
:1018C0007FFBFFFFF0B5A1B003901D008B890F00D7
:1018D00016001B0611D50B69002B0ED14021FFF716
:1018E00001FF38603861002805D10C23039A13608A
:1018F00001204042CFE040237B61002308AC6361BC
:10190000203363761033A376079535002B78002BB0
:1019100001D0252B48D1AB1B0593B5420BD032002B
:1019200039000398FFF76EFF013000D1AEE0636924
:10193000059A9B1863612B78002B00D1A6E0012249
:1019400000235242626004A9543252186E1C236074
:10195000E360A3601370A365544B0522180031782F
:10196000059300F00FFB751C00281FD12268D306D9
:1019700004D5532304A95B1820211970130704D53B
:10198000532304A95B182B21197033782A2B16D006
:10199000350000210A20E3682A786E1C303A092AB3
:1019A00050D9002911D117E00135AFE7059B226816
:1019B000C01A0123834013432E002360CCE7079B0A
:1019C000191D1B680791002B01DB0B9304E05B42A0
:1019D000E3600223134323602B782E2B0CD16B780A
:1019E0002A2B34D1079B02351A1D1B680792002B46
:1019F00001DA01235B4209932D4E0322300029783E
:101A000000F0C0FA002806D04023801B83402268E3
:101A10000135134323602978062226486E1C21765F
:101A200000F0B0FA002838D0234B002B22D1072237
:101A3000079B07339343083307936369049A9B1802
:101A4000636162E74343350001219B18A4E700234B
:101A50000A201900013563602A786E1C303A092A81
:101A600003D9002BC8D00991C6E7414335000123B3
:101A70008918F1E707AA009221003A000F4B03985A
:101A800000E000BF0490049B0133D6D1BB890D98C0
:101A90005B0600D52CE721B0F0BD07AA009221001B
:101AA0003A00064B039800F07BF8EBE75327000859
:101AB000592700085D2700080000000005180008ED
:101AC000F7B5160001938A680B690C0000909342E9
:101AD00000DA13002200336043321278002A01D06A
:101AE0000133336023689B0602D5336802333360C9
:101AF0002268062315001D401A4227D023004333D5
:101B00001B785A1E93412268920630D42200019914
:101B10000098089D4332A847013025D0062223684B
:101B200000251340042B05D13368E568ED1AEB431B
:101B3000DB171D40A3682269934201DD9B1AED1853
:101B40000026B54220D1002010E00135E36832685C
:101B50009B1AAB42D2DD2200012301990098089F15
:101B60001932B8470130F0D101204042FEBD30208B
:101B7000E1184331087021005A1C45310978A21838
:101B8000433202331170C1E722000123019900980A
:101B9000089F1A32B8470130E6D00136D1E700007D
:101BA000F0B58BB006920A0043320793059003927A
:101BB0000A7E0C00109B782A09D8622A0BD8002ACA
:101BC00000D1BAE07A490491582A00D18EE025006C
:101BD00042352A7022E0100063381528F7D8FEF746
:101BE00093FA16001F00F6FFF6FFF6FFF6FF1F0040
:101BF000F6FFF6FFF6FFF6FF9F0036007E00F6FFC9
:101C0000F6FFB000F6FF3600F6FFF6FF8200250073
:101C10001A684235111D196013682B7001239EE06C
:101C200018680968021D0D060BD506681A60002E9B
:101C300003DA2D23039A764213705D4B0A2704932F
:101C400018E006681A604906F1D536B2EFE7086871
:101C5000196840C9050602D4400600D5B6B219601D
:101C6000534B0A2704936F2A00D1023F230000221E
:101C700043331A706368A360002B06DB04212268DB
:101C8000039D8A43226033430CD0039D300039000A
:101C9000FEF7CAFA049B013D5B5C2B703300060023
:101CA0009F42F3D9082F09D12368DB0706D5626864
:101CB00023699A4202DC3023013D2B70039B5B1B9E
:101CC0002361079B210000930598069B09AAFFF753
:101CD000F7FE013048D1012040420BB0F0BD202278
:101CE00009680A4322607822324904912100453173
:101CF0000A701968226840C9100602D4500600D53F
:101D0000B6B21960D30702D5202313432360002EF7
:101D100001D01027AAE72022236893432360F8E725
:101D20001A680D68101D4969186013682E0601D5E0
:101D3000196002E06D06FBD519800023039D236125
:101D4000BFE71A68111D1960156800212800626834
:101D500000F018F9002801D0401B6060636823611F
:101D60000023039A1370ACE72A00236906990598AB
:101D7000079DA8470130AED023689B0715D4099B67
:101D8000E0689842A9DA1800A7E722000123069923
:101D90000598079E1932B04701309CD00135E368A1
:101DA000099A9B1AAB42F0DCE9E70025F7E7C04649
:101DB0006427000875270008F7B50C228B5E050024
:101DC0000C001A0756D44A68002A02DC0A6C002A62
:101DD0004EDDE76A002F4BD0002280202E682A605B
:101DE0001A004001216A0240034233D0626DA38988
:101DF0005B0706D56368D21A636B002B01D0236C96
:101E0000D21A00232800E76A216AB847A289431C36
:101E100006D129681D2946D8294BCB40DB0742D57E
:101E20000023636023692360D20405D5431C02D1DB
:101E30002B68002B00D16065616B2E60002917D0E4
:101E400023004433994202D02800FFF7D5FB00233A
:101E500063630DE001232800B8470200431CC6D18C
:101E60002B68002BC3D01D2B01D0162B1AD12E604E
:101E700000201EE00E69002EFAD00F680E60BA1B1B
:101E8000019200229B0700D14A69A260019B002BAE
:101E9000EEDDA36A32001F002800019B216AB847CB
:101EA000002807DCA2894023012013431BB2A38131
:101EB0004042FEBD019B36181B1A0193E6E7C0465F
:101EC000010040200B6970B505000C00002B02D109
:101ED0000025280070BD002804D0036A002B01D122
:101EE000FFF738FA0C22A35E002BF1D0626ED20706
:101EF00004D49B0502D4A06DFFF75DFB28002100F0
:101F0000FFF75AFF636E0500DB07E2D4A3899B0548
:101F1000DFD4A06DFFF750FBDBE700000EB417B570
:101F2000054C05AB04CB01002068019300F09CF840
:101F30001EBC08BC03B018473400002010B588420E
:101F400002D98B18984208D300239A4207D0CC5C60
:101F5000C4540133F9E78B5C8354013AFBD210BDC2
:101F6000002370B5064D040008002B6000F052FB02
:101F7000431C03D12B68002B00D0236070BDC046EA
:101F80003C020020C9B28218904201D10020704763
:101F900003788B42FBD00130F6E7002310B59A425C
:101FA00000D110BDCC5CC4540133F8E7062010B555
:101FB00000F040FA012000F045FBF7B506000C00E8
:101FC0001500002905D11100FFF78CFB040020004B
:101FD000FEBD002A03D1FFF70FFB2C00F7E700F04E
:101FE00049FA0700854202D84308AB42EFD32900E3
:101FF0003000FFF777FB0190002801D1019CE6E754
:102000002A00BD4200D93A0021000198FFF7C5FF20
:1020100021003000FFF7F0FAF0E7936810B5013BBC
:102020009360002B04DA9469A34207DB0A2905D0E8
:102030001368581C10601970080010BD00F030F9CA
:102040000100F9E7F8B506000F001400D518AC42FE
:1020500001D1002007E021783A003000FFF7DDFFD2
:102060000134431CF3D1F8BDF0B5A1B00F00150049
:102070001E000390002804D0036A002B01D1FFF753
:1020800069F97B6EDB0705D4BB899B0502D4B86D6B
:10209000FFF791FABB891B0702D53B69002B13D1CF
:1020A0003900039800F03EF900280DD07B6EDB0765
:1020B00003D50120404221B0F0BDBB899B05F8D477
:1020C000B86DFFF779FAF4E7002308AC63612033B9
:1020D00063761033A37607962E003378002B01D059
:1020E000252B48D1731B0593AE420BD02A00390033
:1020F0000398FFF7A7FF013000D1AEE06369059AAE
:102100009B1863613378002B00D1A6E001220023E5
:102110005242626004A954325218751C2360E36075
:10212000A3601370A365594B052218002978059305
:10213000FFF728FF6E1C00281FD12268D30604D5A4
:10214000532304A95B1820211970130704D55323C6
:1021500004A95B182B2119702B782A2B16D02E007E
:1021600000210A20E3683278751C303A092A50D9D8
:10217000002911D117E00136AFE7059B2268C01A8C
:1021800001238340134335002360CCE7079B191DCF
:102190001B680791002B01DB0B9304E05B42E360BB
:1021A00002231343236033782E2B0CD173782A2B10
:1021B00034D1079B02361A1D1B680792002B01DAE7
:1021C00001235B420993324D032228003178FFF747
:1021D000D9FE002806D04023401B834022680136E8
:1021E00013432360317806222A48751C2176FFF7B5
:1021F000C9FE002840D0284B002B22D10722079B84
:1022000007339343083307936369049A9B18636108
:1022100062E743432E0001219B18A4E700230A2014
:102220001900013663603278751C303A092A03D9E7
:10223000002BC8D00991C6E741432E00012389181D
:10224000F1E707AA009221003A00144B039800E03E
:1022500000BF0490049B0133D6D17B6EDB0705D40D
:10226000BB899B0502D4B86DFFF7A6F9BB895B0655
:1022700000D51EE70D981EE707AA009221003A003C
:10228000064B0398FFF78CFCE3E7C0465327000892
:10229000592700085D2700080000000045200008BD
:1022A000F8B506000D001400002804D0036A002BC6
:1022B00001D1FFF74FF8A369A360A3891B0702D5DB
:1022C0002369002B09D12100300000F02BF80028F1
:1022D00003D001256D422800F8BD23692068EFB2C4
:1022E000C01A6369EDB2834205DC21003000FFF7BC
:1022F000E9FD0028EDD1A3680130013BA36023680C
:102300005A1C22601F706369834204D0A389DB07D3
:10231000E1D50A2DDFD121003000FFF7D3FD0028E1
:10232000D9D0D6E72D4B70B5050018680C000028F1
:1023300004D0036A002B01D1FFF70CF80C22A35E36
:102340001A0723D4DA0607D409222A604022012082
:102350001343A38140423AE05B0713D5616B002928
:1023600008D023004433994202D02800FFF744F9F3
:10237000002363632422A3899343A3810023636022
:10238000236923600823A2891343A3812369002BB7
:102390000BD1A0218022A389890092000B40934297
:1023A00003D02100280000F097F80C22A35E012141
:1023B0001A000A400B420BD00022A260626952420E
:1023C000A26100202269824201D11A06BED470BDEA
:1023D000990700D46269A260F3E7C0463400002088
:1023E00070B504000D001F2904D9162303600120D5
:1023F000404270BDC36B002B04D08A009B181A6842
:10240000002A08D1200000F031F82A000100200045
:1024100000F01AF8EDE7012A09D0511C03D1162368
:1024200003600120E5E700212800196090470020A3
:10243000DFE7000010B5034B01001868FFF7D0FF7D
:1024400010BDC04634000020002370B5064D0400C6
:10245000080011002B6000F0C5F8431C03D12B6865
:10246000002B00D0236070BD3C02002010B500F0AE
:10247000A9F810BD0B1F1B68181F002B01DA0B58A1
:10248000C018704770B50E001D000E23C95E140001
:1024900096B000290CDAB2898023110019401A4243
:1024A00014D18023DB0000202960236016B070BDAA
:1024B0006A4600F053F80028EDDBF02301991B0277
:1024C0001940044BC9184B425941EAE70021402307
:1024D000E9E7C04600E0FFFFF0B502268B89050062
:1024E0000C0085B0334207D02300473323602361BB
:1024F0000123636105B0F0BD03AB02AAFFF7C2FF81
:10250000029F019039002800FFF7ECF8002808D15D
:102510000C22A35E9A05EDD4032293431E43A681A9
:10252000E2E78023A28920601343A381039B2061FB
:102530006761002B0CD028000E23E15E00F020F82C
:10254000002805D00323A2899A43023B1343A381A9
:10255000A389019A1343A381CCE70000002370B53F
:10256000064D0400080011002B6000F023F8431C06
:1025700003D12B68002B00D0236070BD3C020020EB
:10258000002370B5064D040008002B6000F022F80F
:10259000431C03D12B68002B00D0236070BDC046C4
:1025A0003C02002058220120014B40421A60704733
:1025B0003C02002058220120014B40421A60704723
:1025C0003C02002058220120014B40421A60704713
:1025D0003C0200205822024B00201A607047C0467F
:1025E0003C02002058220120014B40421A607047F3
:1025F0003C02002058220120014B40421A607047E3
:102600003C02002058220120014B40421A607047D2
:102610003C020020054A03001168002901D1044949
:1026200011601068C31813607047C0464C02002048
:102630005002002058220120014B40421A6070478E
:102640003C020020FEE70000F8B5C046F8BC08BC1C
:102650009E467047F8B5C046F8BC08BC9E46704719
:102660002575000000000000202C20004D4F44453F
:102670003A2033003230323520505241432031006D
:1026800053706565643A20317300000053706565CE
:10269000643A20302E3573004D4F44453A203100C6
:1026A0004D4F44453A2032005245454E54206D610D
:1026B0006C6C6F6320737563636565646564002F7C
:1026C0006275696C642F676E752D746F6F6C732DF6
:1026D000666F722D73746D33325F31332E332E7209
:1026E000656C312E32303234303932362D3137315B
:1026F000352F7372632F6E65776C69622F6E657705
:102700006C69622F6C6962632F7374646C69622FE9
:1027100072616E642E63002C2066756E6374696F3F
:102720006E3A2000617373657274696F6E202225A2
:102730007322206661696C65643A2066696C652065
:10274000222573222C206C696E6520256425732553
:10275000730A00232D302B2000686C4C00656667DF
:102760004546470030313233343536373839414207
:1027700043444546003031323334353637383961D9
:0827800062636465660000005D
:04278800E90000085C
:04278C00C100000880
:1027900001010000FEFDFBF7EFDFBF7FBFDF0000A0
:1027A00001020408102040804020C80000127A0076
:1027B0000100000004000000000000000300000011
:1027C000000100203800002000000000000100206F
:1027D00068010020D001002000000000000000007F
:1027E00000000000000000000000000000000000E9
:1027F00000000000000000000000000000000000D9
:1028000000000000000000000000000000000000C8
:0428100000000000C4
:040000050800116579
:00000001FF
